{
  "contractName": "supplyChain",
  "abi": [
    {
      "inputs": [],
      "payable": false,
      "stateMutability": "nonpayable",
      "type": "constructor"
    },
    {
      "constant": true,
      "inputs": [
        {
          "internalType": "uint256",
          "name": "",
          "type": "uint256"
        }
      ],
      "name": "OwnedNames",
      "outputs": [
        {
          "internalType": "bytes32",
          "name": "",
          "type": "bytes32"
        }
      ],
      "payable": false,
      "stateMutability": "view",
      "type": "function"
    },
    {
      "constant": true,
      "inputs": [],
      "name": "contractOwner",
      "outputs": [
        {
          "internalType": "address",
          "name": "",
          "type": "address"
        }
      ],
      "payable": false,
      "stateMutability": "view",
      "type": "function"
    },
    {
      "constant": true,
      "inputs": [
        {
          "internalType": "address",
          "name": "",
          "type": "address"
        },
        {
          "internalType": "uint256",
          "name": "",
          "type": "uint256"
        }
      ],
      "name": "idList",
      "outputs": [
        {
          "internalType": "uint256",
          "name": "",
          "type": "uint256"
        }
      ],
      "payable": false,
      "stateMutability": "view",
      "type": "function"
    },
    {
      "constant": true,
      "inputs": [
        {
          "internalType": "uint256",
          "name": "",
          "type": "uint256"
        }
      ],
      "name": "product",
      "outputs": [
        {
          "internalType": "uint256",
          "name": "ID",
          "type": "uint256"
        },
        {
          "internalType": "string",
          "name": "ownerName",
          "type": "string"
        },
        {
          "internalType": "address",
          "name": "ownerAddress",
          "type": "address"
        },
        {
          "internalType": "string",
          "name": "productName",
          "type": "string"
        },
        {
          "internalType": "string",
          "name": "prevOwner",
          "type": "string"
        },
        {
          "internalType": "string",
          "name": "manu_Name",
          "type": "string"
        },
        {
          "internalType": "string",
          "name": "manu_Date",
          "type": "string"
        }
      ],
      "payable": false,
      "stateMutability": "view",
      "type": "function"
    },
    {
      "constant": true,
      "inputs": [
        {
          "internalType": "uint256",
          "name": "",
          "type": "uint256"
        }
      ],
      "name": "productNameList",
      "outputs": [
        {
          "internalType": "bytes32",
          "name": "",
          "type": "bytes32"
        }
      ],
      "payable": false,
      "stateMutability": "view",
      "type": "function"
    },
    {
      "constant": true,
      "inputs": [],
      "name": "addManufacturerCheck",
      "outputs": [
        {
          "internalType": "bool",
          "name": "",
          "type": "bool"
        }
      ],
      "payable": false,
      "stateMutability": "view",
      "type": "function"
    },
    {
      "constant": false,
      "inputs": [],
      "name": "addManufacturer",
      "outputs": [],
      "payable": false,
      "stateMutability": "nonpayable",
      "type": "function"
    },
    {
      "constant": false,
      "inputs": [
        {
          "internalType": "string",
          "name": "date",
          "type": "string"
        },
        {
          "internalType": "string",
          "name": "pName",
          "type": "string"
        },
        {
          "internalType": "bytes32",
          "name": "PName",
          "type": "bytes32"
        },
        {
          "internalType": "string",
          "name": "oName",
          "type": "string"
        },
        {
          "internalType": "string",
          "name": "mName",
          "type": "string"
        },
        {
          "internalType": "uint256",
          "name": "quantity",
          "type": "uint256"
        }
      ],
      "name": "addProduct",
      "outputs": [
        {
          "internalType": "uint256",
          "name": "",
          "type": "uint256"
        }
      ],
      "payable": false,
      "stateMutability": "nonpayable",
      "type": "function"
    },
    {
      "constant": false,
      "inputs": [],
      "name": "ownerProducts",
      "outputs": [
        {
          "internalType": "bytes32[]",
          "name": "",
          "type": "bytes32[]"
        }
      ],
      "payable": false,
      "stateMutability": "nonpayable",
      "type": "function"
    },
    {
      "constant": true,
      "inputs": [],
      "name": "ownerProductsId",
      "outputs": [
        {
          "internalType": "uint256[]",
          "name": "",
          "type": "uint256[]"
        }
      ],
      "payable": false,
      "stateMutability": "view",
      "type": "function"
    },
    {
      "constant": false,
      "inputs": [
        {
          "internalType": "uint256",
          "name": "id",
          "type": "uint256"
        },
        {
          "internalType": "string",
          "name": "newOwner",
          "type": "string"
        },
        {
          "internalType": "address",
          "name": "newOwnerAddress",
          "type": "address"
        }
      ],
      "name": "changeOwner",
      "outputs": [
        {
          "internalType": "bool",
          "name": "",
          "type": "bool"
        }
      ],
      "payable": false,
      "stateMutability": "nonpayable",
      "type": "function"
    },
    {
      "constant": true,
      "inputs": [
        {
          "internalType": "uint256",
          "name": "id",
          "type": "uint256"
        }
      ],
      "name": "verifyProduct",
      "outputs": [
        {
          "internalType": "string",
          "name": "",
          "type": "string"
        },
        {
          "internalType": "uint256",
          "name": "",
          "type": "uint256"
        },
        {
          "internalType": "string",
          "name": "",
          "type": "string"
        },
        {
          "internalType": "string",
          "name": "",
          "type": "string"
        },
        {
          "internalType": "address",
          "name": "",
          "type": "address"
        },
        {
          "internalType": "string",
          "name": "",
          "type": "string"
        }
      ],
      "payable": false,
      "stateMutability": "view",
      "type": "function"
    }
  ],
  "bytecode": "0x608060405234801561001057600080fd5b50336000806101000a81548173ffffffffffffffffffffffffffffffffffffffff021916908373ffffffffffffffffffffffffffffffffffffffff160217905550620186a1600181905550611d968061006a6000396000f3fe608060405234801561001057600080fd5b50600436106100b45760003560e01c8063a2c66c3611610071578063a2c66c36146109d5578063b5f6dffc146109df578063ce606ee014610a21578063e8479cd114610a6b578063ebb5dc1214610a8d578063f79aac0514610acf576100b4565b80632aa05c57146100b9578063524e84621461011b57806353c81d1b14610340578063570ddbf11461039f578063780bd3f11461049c5780638f7a88d51461072d575b600080fd5b610105600480360360408110156100cf57600080fd5b81019080803573ffffffffffffffffffffffffffffffffffffffff16906020019092919080359060200190929190505050610b2e565b6040518082815260200191505060405180910390f35b6101476004803603602081101561013157600080fd5b8101908080359060200190929190505050610b5c565b604051808060200187815260200180602001806020018673ffffffffffffffffffffffffffffffffffffffff1673ffffffffffffffffffffffffffffffffffffffff1681526020018060200185810385528b818151815260200191508051906020019080838360005b838110156101cb5780820151818401526020810190506101b0565b50505050905090810190601f1680156101f85780820380516001836020036101000a031916815260200191505b50858103845289818151815260200191508051906020019080838360005b83811015610231578082015181840152602081019050610216565b50505050905090810190601f16801561025e5780820380516001836020036101000a031916815260200191505b50858103835288818151815260200191508051906020019080838360005b8381101561029757808201518184015260208101905061027c565b50505050905090810190601f1680156102c45780820380516001836020036101000a031916815260200191505b50858103825286818151815260200191508051906020019080838360005b838110156102fd5780820151818401526020810190506102e2565b50505050905090810190601f16801561032a5780820380516001836020036101000a031916815260200191505b509a505050505050505050505060405180910390f35b610348610e92565b6040518080602001828103825283818151815260200191508051906020019060200280838360005b8381101561038b578082015181840152602081019050610370565b505050509050019250505060405180910390f35b610482600480360360608110156103b557600080fd5b8101908080359060200190929190803590602001906401000000008111156103dc57600080fd5b8201836020820111156103ee57600080fd5b8035906020019184600183028401116401000000008311171561041057600080fd5b91908080601f016020809104026020016040519081016040528093929190818152602001838380828437600081840152601f19601f820116905080830192505050505050509192919290803573ffffffffffffffffffffffffffffffffffffffff169060200190929190505050610fed565b604051808215151515815260200191505060405180910390f35b6104c8600480360360208110156104b257600080fd5b8101908080359060200190929190505050611257565b60405180888152602001806020018773ffffffffffffffffffffffffffffffffffffffff1673ffffffffffffffffffffffffffffffffffffffff1681526020018060200180602001806020018060200186810386528c818151815260200191508051906020019080838360005b83811015610550578082015181840152602081019050610535565b50505050905090810190601f16801561057d5780820380516001836020036101000a031916815260200191505b5086810385528a818151815260200191508051906020019080838360005b838110156105b657808201518184015260208101905061059b565b50505050905090810190601f1680156105e35780820380516001836020036101000a031916815260200191505b50868103845289818151815260200191508051906020019080838360005b8381101561061c578082015181840152602081019050610601565b50505050905090810190601f1680156106495780820380516001836020036101000a031916815260200191505b50868103835288818151815260200191508051906020019080838360005b83811015610682578082015181840152602081019050610667565b50505050905090810190601f1680156106af5780820380516001836020036101000a031916815260200191505b50868103825287818151815260200191508051906020019080838360005b838110156106e85780820151818401526020810190506106cd565b50505050905090810190601f1680156107155780820380516001836020036101000a031916815260200191505b509c5050505050505050505050505060405180910390f35b6109bf600480360360c081101561074357600080fd5b810190808035906020019064010000000081111561076057600080fd5b82018360208201111561077257600080fd5b8035906020019184600183028401116401000000008311171561079457600080fd5b91908080601f016020809104026020016040519081016040528093929190818152602001838380828437600081840152601f19601f820116905080830192505050505050509192919290803590602001906401000000008111156107f757600080fd5b82018360208201111561080957600080fd5b8035906020019184600183028401116401000000008311171561082b57600080fd5b91908080601f016020809104026020016040519081016040528093929190818152602001838380828437600081840152601f19601f820116905080830192505050505050509192919290803590602001909291908035906020019064010000000081111561089857600080fd5b8201836020820111156108aa57600080fd5b803590602001918460018302840111640100000000831117156108cc57600080fd5b91908080601f016020809104026020016040519081016040528093929190818152602001838380828437600081840152601f19601f8201169050808301925050505050505091929192908035906020019064010000000081111561092f57600080fd5b82018360208201111561094157600080fd5b8035906020019184600183028401116401000000008311171561096357600080fd5b91908080601f016020809104026020016040519081016040528093929190818152602001838380828437600081840152601f19601f820116905080830192505050505050509192919290803590602001909291905050506115b1565b6040518082815260200191505060405180910390f35b6109dd611889565b005b610a0b600480360360208110156109f557600080fd5b81019080803590602001909291905050506118f1565b6040518082815260200191505060405180910390f35b610a29611909565b604051808273ffffffffffffffffffffffffffffffffffffffff1673ffffffffffffffffffffffffffffffffffffffff16815260200191505060405180910390f35b610a7361192e565b604051808215151515815260200191505060405180910390f35b610ab960048036036020811015610aa357600080fd5b81019080803590602001909291905050506119d2565b6040518082815260200191505060405180910390f35b610ad76119f3565b6040518080602001828103825283818151815260200191508051906020019060200280838360005b83811015610b1a578082015181840152602081019050610aff565b505050509050019250505060405180910390f35b60026020528160005260406000208181548110610b4757fe5b90600052602060002001600091509150505481565b6060600060608060006060600360008881526020019081526020016000206003016003600089815260200190815260200160002060000154600360008a8152602001908152602001600020600501600360008b8152602001908152602001600020600601600360008c815260200190815260200160002060020160009054906101000a900473ffffffffffffffffffffffffffffffffffffffff16600360008d8152602001908152602001600020600401858054600181600116156101000203166002900480601f016020809104026020016040519081016040528092919081815260200182805460018160011615610100020316600290048015610ca25780601f10610c7757610100808354040283529160200191610ca2565b820191906000526020600020905b815481529060010190602001808311610c8557829003601f168201915b50505050509550838054600181600116156101000203166002900480601f016020809104026020016040519081016040528092919081815260200182805460018160011615610100020316600290048015610d3e5780601f10610d1357610100808354040283529160200191610d3e565b820191906000526020600020905b815481529060010190602001808311610d2157829003601f168201915b50505050509350828054600181600116156101000203166002900480601f016020809104026020016040519081016040528092919081815260200182805460018160011615610100020316600290048015610dda5780601f10610daf57610100808354040283529160200191610dda565b820191906000526020600020905b815481529060010190602001808311610dbd57829003601f168201915b50505050509250808054600181600116156101000203166002900480601f016020809104026020016040519081016040528092919081815260200182805460018160011615610100020316600290048015610e765780601f10610e4b57610100808354040283529160200191610e76565b820191906000526020600020905b815481529060010190602001808311610e5957829003601f168201915b5050505050905095509550955095509550955091939550919395565b606060066000610ea29190611ba3565b6000809050600090505b600260003373ffffffffffffffffffffffffffffffffffffffff1673ffffffffffffffffffffffffffffffffffffffff16815260200190815260200160002080549050811015610f9657600660046000600260003373ffffffffffffffffffffffffffffffffffffffff1673ffffffffffffffffffffffffffffffffffffffff1681526020019081526020016000208481548110610f4657fe5b906000526020600020015481526020019081526020016000205490806001815401808255809150509060018203906000526020600020016000909192909190915055508080600101915050610eac565b6006805480602002602001604051908101604052809291908181526020018280548015610fe257602002820191906000526020600020905b815481526020019060010190808311610fce575b505050505091505090565b6000806003600086815260200190815260200160002090508060020160009054906101000a900473ffffffffffffffffffffffffffffffffffffffff1673ffffffffffffffffffffffffffffffffffffffff163373ffffffffffffffffffffffffffffffffffffffff16141561124a57806004018160010160405160200180838054600181600116156101000203166002900480156110c35780601f106110a15761010080835404028352918201916110c3565b820191906000526020600020905b8154815290600101906020018083116110af575b5050807f202c200000000000000000000000000000000000000000000000000000000000815250600301828054600181600116156101000203166002900480156111445780601f10611122576101008083540402835291820191611144565b820191906000526020600020905b815481529060010190602001808311611130575b505092505050604051602081830303815290604052816004019080519060200190611170929190611bc4565b50828160020160006101000a81548173ffffffffffffffffffffffffffffffffffffffff021916908373ffffffffffffffffffffffffffffffffffffffff160217905550838160010190805190602001906111cc929190611bc4565b506111d73386611a88565b600260008473ffffffffffffffffffffffffffffffffffffffff1673ffffffffffffffffffffffffffffffffffffffff1681526020019081526020016000208590806001815401808255809150509060018203906000526020600020016000909192909190915055506001915050611250565b60009150505b9392505050565b6003602052806000526040600020600091509050806000015490806001018054600181600116156101000203166002900480601f0160208091040260200160405190810160405280929190818152602001828054600181600116156101000203166002900480156113095780601f106112de57610100808354040283529160200191611309565b820191906000526020600020905b8154815290600101906020018083116112ec57829003601f168201915b5050505050908060020160009054906101000a900473ffffffffffffffffffffffffffffffffffffffff1690806003018054600181600116156101000203166002900480601f0160208091040260200160405190810160405280929190818152602001828054600181600116156101000203166002900480156113cd5780601f106113a2576101008083540402835291602001916113cd565b820191906000526020600020905b8154815290600101906020018083116113b057829003601f168201915b505050505090806004018054600181600116156101000203166002900480601f01602080910402602001604051908101604052809291908181526020018280546001816001161561010002031660029004801561146b5780601f106114405761010080835404028352916020019161146b565b820191906000526020600020905b81548152906001019060200180831161144e57829003601f168201915b505050505090806005018054600181600116156101000203166002900480601f0160208091040260200160405190810160405280929190818152602001828054600181600116156101000203166002900480156115095780601f106114de57610100808354040283529160200191611509565b820191906000526020600020905b8154815290600101906020018083116114ec57829003601f168201915b505050505090806006018054600181600116156101000203166002900480601f0160208091040260200160405190810160405280929190818152602001828054600181600116156101000203166002900480156115a75780601f1061157c576101008083540402835291602001916115a7565b820191906000526020600020905b81548152906001019060200180831161158a57829003601f168201915b5050505050905087565b600080600090506000809050600091505b60058054905082101561164c573373ffffffffffffffffffffffffffffffffffffffff16600583815481106115f357fe5b9060005260206000200160009054906101000a900473ffffffffffffffffffffffffffffffffffffffff1673ffffffffffffffffffffffffffffffffffffffff16141561163f57600190505b81806001019250506115c2565b6001811415611878576000809050600090505b848110156118695761166f611c44565b6040518060e0016040528060015481526020018981526020013373ffffffffffffffffffffffffffffffffffffffff1681526020018b81526020016040518060200160405280600081525081526020018881526020018c815250905080600360006001548152602001908152602001600020600082015181600001556020820151816001019080519060200190611707929190611c97565b5060408201518160020160006101000a81548173ffffffffffffffffffffffffffffffffffffffff021916908373ffffffffffffffffffffffffffffffffffffffff160217905550606082015181600301908051906020019061176b929190611c97565b506080820151816004019080519060200190611788929190611c97565b5060a08201518160050190805190602001906117a5929190611c97565b5060c08201518160060190805190602001906117c2929190611c97565b509050508860046000600154815260200190815260200160002081905550600260003373ffffffffffffffffffffffffffffffffffffffff1673ffffffffffffffffffffffffffffffffffffffff16815260200190815260200160002060015490806001815401808255809150509060018203906000526020600020016000909192909190915055506001806000828254019250508190555050808060010191505061165f565b6001805403935050505061187f565b6000925050505b9695505050505050565b60053390806001815401808255809150509060018203906000526020600020016000909192909190916101000a81548173ffffffffffffffffffffffffffffffffffffffff021916908373ffffffffffffffffffffffffffffffffffffffff16021790555050565b60046020528060005260406000206000915090505481565b6000809054906101000a900473ffffffffffffffffffffffffffffffffffffffff1681565b60008060009050600090505b6005805490508110156119c9573373ffffffffffffffffffffffffffffffffffffffff166005828154811061196b57fe5b9060005260206000200160009054906101000a900473ffffffffffffffffffffffffffffffffffffffff1673ffffffffffffffffffffffffffffffffffffffff1614156119bc5760009150506119cf565b808060010191505061193a565b60019150505b90565b600681815481106119df57fe5b906000526020600020016000915090505481565b6060600260003373ffffffffffffffffffffffffffffffffffffffff1673ffffffffffffffffffffffffffffffffffffffff168152602001908152602001600020805480602002602001604051908101604052809291908181526020018280548015611a7e57602002820191906000526020600020905b815481526020019060010190808311611a6a575b5050505050905090565b6000809050600090505b600260008473ffffffffffffffffffffffffffffffffffffffff1673ffffffffffffffffffffffffffffffffffffffff16815260200190815260200160002080549050811015611b9e5781600260008573ffffffffffffffffffffffffffffffffffffffff1673ffffffffffffffffffffffffffffffffffffffff1681526020019081526020016000208281548110611b2757fe5b90600052602060002001541415611b9157600260008473ffffffffffffffffffffffffffffffffffffffff1673ffffffffffffffffffffffffffffffffffffffff1681526020019081526020016000208181548110611b8257fe5b90600052602060002001600090555b8080600101915050611a92565b505050565b5080546000825590600052602060002090810190611bc19190611d17565b50565b828054600181600116156101000203166002900490600052602060002090601f016020900481019282601f10611c0557805160ff1916838001178555611c33565b82800160010185558215611c33579182015b82811115611c32578251825591602001919060010190611c17565b5b509050611c409190611d3c565b5090565b6040518060e001604052806000815260200160608152602001600073ffffffffffffffffffffffffffffffffffffffff168152602001606081526020016060815260200160608152602001606081525090565b828054600181600116156101000203166002900490600052602060002090601f016020900481019282601f10611cd857805160ff1916838001178555611d06565b82800160010185558215611d06579182015b82811115611d05578251825591602001919060010190611cea565b5b509050611d139190611d3c565b5090565b611d3991905b80821115611d35576000816000905550600101611d1d565b5090565b90565b611d5e91905b80821115611d5a576000816000905550600101611d42565b5090565b9056fea265627a7a7231582095a9975d00e3a4d1d1d16d7af9431240ebb412925fad7fc1eef4842527abfe2b64736f6c63430005100032",
  "source": "// SPDX-License-Identifier: GPL-3.0\n\npragma solidity >=0.5.0 <0.9.0;\n\ncontract supplyChain {\n\n    address public contractOwner;\n    \n    // stores the current unique Id which will be assigned\n    uint private uniqueID ;\n    struct Data{\n        uint ID;\n        string ownerName;\n        address ownerAddress;\n        string productName;\n        string prevOwner;\n        string manu_Name;\n        string manu_Date;\n\n    }\n    // This is a mapping of accounts and the products owned by the account (stroes unique ID)\n    mapping (address => uint[]) public  idList;\n    mapping (uint => Data) public product;\n    mapping (uint => bytes32) public productNameList;\n    // array to store data of manufacturer (address)\n    address[] private manu;\n    // array for user's owned product names\n    bytes32[] public OwnedNames;\n    \n    constructor () public {\n        contractOwner=msg.sender;\n        uniqueID=100001;\n    }\n\n//  To check whether that wallet id is already registered\n    function addManufacturerCheck() public view returns(bool) {\n        uint i=0;\n        for (i=0; i<manu.length; i++) {\n            if (manu[i] == msg.sender) {\n                return false;\n            }\n        }\n        return true;\n    }\n\n//   add manufacturer\n    function addManufacturer() public {\n    \n        manu.push(msg.sender);\n    \n    }\n    \n    function addProduct(string memory  date,string memory  pName, bytes32 PName, string memory oName,string memory mName, uint quantity) public returns(uint){\n        uint i=0;\n        uint flag=0;\n        for(i=0;i<manu.length;i++){\n            if(manu[i]==msg.sender){\n                flag=1;\n            }\n        }\n                \n        if(flag==1){\n            uint loopCounter = 0;\n            for (loopCounter=0; loopCounter<quantity; loopCounter++) {\n                Data memory p = Data(uniqueID,oName,msg.sender,pName,\"\",mName,date);\n                product[uniqueID]=p;\n                productNameList[uniqueID]=PName;\n                \n                //next part inserting into manufacturer details\n\n                \n                idList[msg.sender].push(uniqueID);\n                uniqueID+=1;\n            }\n            return (uniqueID-1);\n        }\n        else{\n            return 0;\n        }\n    }\n\n    //  function to get List of owned Products\n    function ownerProducts() public returns( bytes32 [] memory){\n        delete OwnedNames;\n        uint i = 0;\n        for (i=0; i<idList[msg.sender].length; i++) {\n            OwnedNames.push(productNameList[idList[msg.sender][i]]);\n        }\n        return OwnedNames;\n    }\n\n    function ownerProductsId() public view returns(uint[] memory) {\n        return idList[msg.sender];\n    }\n\n    //  remove owned list\n    function removeOwnedList(address x,uint Id) private {\n        uint i=0;\n        for(i=0;i<idList[x].length;i++){\n            if(idList[x][i]==Id){\n                // idList[x][i]=0;\n                delete idList[x][i];\n            }\n        }\n    }\n    \n    //  change ownership\n    function changeOwner(uint id,string memory newOwner,address newOwnerAddress) public returns(bool){\n    \n        Data storage c = product[id];\n        if(msg.sender==c.ownerAddress){\n            \n            c.prevOwner= string(abi.encodePacked(c.prevOwner,\" , \",c.ownerName));\n            c.ownerAddress=newOwnerAddress;\n            c.ownerName=newOwner;\n            removeOwnedList(msg.sender,id); // remove from previous array\n            idList[newOwnerAddress].push(id);\n            return true;\n        }\n        else{\n        return false;\n        }\n\n    }\n\n    // My custom function for verify product\n    function verifyProduct(uint id) public view returns(\n        string memory, uint, string memory, string memory, address, string memory\n    ){\n        return (\n            product[id].productName,\n            product[id].ID,\n            product[id].manu_Name,\n            product[id].manu_Date,\n            product[id].ownerAddress,\n            product[id].prevOwner\n        );\n\n    }\n\n}",
  "sourcePath": "D:\\AllTypeOfTesting\\truffle-test\\contracts\\supplyChain.sol",
  "compiler": {
    "name": "solc",
    "version": "0.5.16+commit.9c3226ce.Emscripten.clang"
  },
  "schemaVersion": "3.4.4",
  "updatedAt": "2022-02-11T13:17:43.732Z",
  "networkType": "ethereum",
  "devdoc": {
    "methods": {}
  },
  "userdoc": {
    "methods": {}
  }
}