{
  "contractName": "supplyChain",
  "abi": [
    {
      "inputs": [],
      "payable": false,
      "stateMutability": "nonpayable",
      "type": "constructor"
    },
    {
      "constant": true,
      "inputs": [],
      "name": "contractOwner",
      "outputs": [
        {
          "internalType": "address",
          "name": "",
          "type": "address"
        }
      ],
      "payable": false,
      "stateMutability": "view",
      "type": "function"
    },
    {
      "constant": true,
      "inputs": [
        {
          "internalType": "uint256",
          "name": "",
          "type": "uint256"
        }
      ],
      "name": "product",
      "outputs": [
        {
          "internalType": "uint256",
          "name": "ID",
          "type": "uint256"
        },
        {
          "internalType": "string",
          "name": "ownerName",
          "type": "string"
        },
        {
          "internalType": "address",
          "name": "ownerAddress",
          "type": "address"
        },
        {
          "internalType": "string",
          "name": "productName",
          "type": "string"
        },
        {
          "internalType": "string",
          "name": "prevOwner",
          "type": "string"
        },
        {
          "internalType": "string",
          "name": "manu_Name",
          "type": "string"
        },
        {
          "internalType": "string",
          "name": "manu_Date",
          "type": "string"
        }
      ],
      "payable": false,
      "stateMutability": "view",
      "type": "function"
    },
    {
      "constant": true,
      "inputs": [],
      "name": "uniqueID",
      "outputs": [
        {
          "internalType": "uint256",
          "name": "",
          "type": "uint256"
        }
      ],
      "payable": false,
      "stateMutability": "view",
      "type": "function"
    },
    {
      "constant": true,
      "inputs": [
        {
          "internalType": "uint256",
          "name": "",
          "type": "uint256"
        }
      ],
      "name": "uniqueIDArray",
      "outputs": [
        {
          "internalType": "uint256",
          "name": "",
          "type": "uint256"
        }
      ],
      "payable": false,
      "stateMutability": "view",
      "type": "function"
    },
    {
      "constant": false,
      "inputs": [
        {
          "internalType": "string",
          "name": "date",
          "type": "string"
        },
        {
          "internalType": "string",
          "name": "pName",
          "type": "string"
        },
        {
          "internalType": "string",
          "name": "oName",
          "type": "string"
        },
        {
          "internalType": "string",
          "name": "mName",
          "type": "string"
        }
      ],
      "name": "addProduct",
      "outputs": [
        {
          "internalType": "uint256",
          "name": "",
          "type": "uint256"
        }
      ],
      "payable": false,
      "stateMutability": "nonpayable",
      "type": "function"
    },
    {
      "constant": false,
      "inputs": [
        {
          "internalType": "uint256",
          "name": "id",
          "type": "uint256"
        },
        {
          "internalType": "string",
          "name": "newOwner",
          "type": "string"
        },
        {
          "internalType": "address",
          "name": "newOwnerAddress",
          "type": "address"
        }
      ],
      "name": "changeOwner",
      "outputs": [
        {
          "internalType": "bool",
          "name": "",
          "type": "bool"
        }
      ],
      "payable": false,
      "stateMutability": "nonpayable",
      "type": "function"
    },
    {
      "constant": true,
      "inputs": [
        {
          "internalType": "uint256",
          "name": "id",
          "type": "uint256"
        }
      ],
      "name": "verifyProduct",
      "outputs": [
        {
          "internalType": "string",
          "name": "",
          "type": "string"
        }
      ],
      "payable": false,
      "stateMutability": "view",
      "type": "function"
    },
    {
      "constant": true,
      "inputs": [],
      "name": "get",
      "outputs": [
        {
          "internalType": "uint256",
          "name": "",
          "type": "uint256"
        }
      ],
      "payable": false,
      "stateMutability": "pure",
      "type": "function"
    }
  ],
  "bytecode": "0x608060405234801561001057600080fd5b50336000806101000a81548173ffffffffffffffffffffffffffffffffffffffff021916908373ffffffffffffffffffffffffffffffffffffffff160217905550620186a16002819055506111838061006a6000396000f3fe608060405234801561001057600080fd5b50600436106100885760003560e01c8063780bd3f11161005b578063780bd3f1146102915780638bc533e914610522578063ce606ee014610540578063fde74e811461058a57610088565b80630cbd2c5c1461008d578063524e8462146100cf578063570ddbf1146101765780636d4ce63c14610273575b600080fd5b6100b9600480360360208110156100a357600080fd5b810190808035906020019092919050505061081e565b6040518082815260200191505060405180910390f35b6100fb600480360360208110156100e557600080fd5b810190808035906020019092919050505061083f565b6040518080602001828103825283818151815260200191508051906020019080838360005b8381101561013b578082015181840152602081019050610120565b50505050905090810190601f1680156101685780820380516001836020036101000a031916815260200191505b509250505060405180910390f35b6102596004803603606081101561018c57600080fd5b8101908080359060200190929190803590602001906401000000008111156101b357600080fd5b8201836020820111156101c557600080fd5b803590602001918460018302840111640100000000831117156101e757600080fd5b91908080601f016020809104026020016040519081016040528093929190818152602001838380828437600081840152601f19601f820116905080830192505050505050509192919290803573ffffffffffffffffffffffffffffffffffffffff169060200190929190505050610953565b604051808215151515815260200191505060405180910390f35b61027b610b9f565b6040518082815260200191505060405180910390f35b6102bd600480360360208110156102a757600080fd5b8101908080359060200190929190505050610ba8565b60405180888152602001806020018773ffffffffffffffffffffffffffffffffffffffff1673ffffffffffffffffffffffffffffffffffffffff1681526020018060200180602001806020018060200186810386528c818151815260200191508051906020019080838360005b8381101561034557808201518184015260208101905061032a565b50505050905090810190601f1680156103725780820380516001836020036101000a031916815260200191505b5086810385528a818151815260200191508051906020019080838360005b838110156103ab578082015181840152602081019050610390565b50505050905090810190601f1680156103d85780820380516001836020036101000a031916815260200191505b50868103845289818151815260200191508051906020019080838360005b838110156104115780820151818401526020810190506103f6565b50505050905090810190601f16801561043e5780820380516001836020036101000a031916815260200191505b50868103835288818151815260200191508051906020019080838360005b8381101561047757808201518184015260208101905061045c565b50505050905090810190601f1680156104a45780820380516001836020036101000a031916815260200191505b50868103825287818151815260200191508051906020019080838360005b838110156104dd5780820151818401526020810190506104c2565b50505050905090810190601f16801561050a5780820380516001836020036101000a031916815260200191505b509c5050505050505050505050505060405180910390f35b61052a610f02565b6040518082815260200191505060405180910390f35b610548610f08565b604051808273ffffffffffffffffffffffffffffffffffffffff1673ffffffffffffffffffffffffffffffffffffffff16815260200191505060405180910390f35b610808600480360360808110156105a057600080fd5b81019080803590602001906401000000008111156105bd57600080fd5b8201836020820111156105cf57600080fd5b803590602001918460018302840111640100000000831117156105f157600080fd5b91908080601f016020809104026020016040519081016040528093929190818152602001838380828437600081840152601f19601f8201169050808301925050505050505091929192908035906020019064010000000081111561065457600080fd5b82018360208201111561066657600080fd5b8035906020019184600183028401116401000000008311171561068857600080fd5b91908080601f016020809104026020016040519081016040528093929190818152602001838380828437600081840152601f19601f820116905080830192505050505050509192919290803590602001906401000000008111156106eb57600080fd5b8201836020820111156106fd57600080fd5b8035906020019184600183028401116401000000008311171561071f57600080fd5b91908080601f016020809104026020016040519081016040528093929190818152602001838380828437600081840152601f19601f8201169050808301925050505050505091929192908035906020019064010000000081111561078257600080fd5b82018360208201111561079457600080fd5b803590602001918460018302840111640100000000831117156107b657600080fd5b91908080601f016020809104026020016040519081016040528093929190818152602001838380828437600081840152601f19601f820116905080830192505050505050509192919290505050610f2d565b6040518082815260200191505060405180910390f35b6001818154811061082b57fe5b906000526020600020016000915090505481565b6060600360008381526020019081526020016000206000015482141561091557600360008381526020019081526020016000206004018054600181600116156101000203166002900480601f0160208091040260200160405190810160405280929190818152602001828054600181600116156101000203166002900480156109095780601f106108de57610100808354040283529160200191610909565b820191906000526020600020905b8154815290600101906020018083116108ec57829003601f168201915b5050505050905061094e565b6040518060400160405280601081526020017f4e6f20726573756c747320666f756e640000000000000000000000000000000081525090505b919050565b60006003600085815260200190815260200160002060020160009054906101000a900473ffffffffffffffffffffffffffffffffffffffff1673ffffffffffffffffffffffffffffffffffffffff163373ffffffffffffffffffffffffffffffffffffffff161415610b8e5760036000858152602001908152602001600020600401600360008681526020019081526020016000206001016040516020018083805460018160011615610100020316600290048015610a495780601f10610a27576101008083540402835291820191610a49565b820191906000526020600020905b815481529060010190602001808311610a35575b5050807f202c20000000000000000000000000000000000000000000000000000000000081525060030182805460018160011615610100020316600290048015610aca5780601f10610aa8576101008083540402835291820191610aca565b820191906000526020600020905b815481529060010190602001808311610ab6575b505092505050604051602081830303815290604052600360008681526020019081526020016000206004019080519060200190610b089291906110a9565b50816003600086815260200190815260200160002060020160006101000a81548173ffffffffffffffffffffffffffffffffffffffff021916908373ffffffffffffffffffffffffffffffffffffffff16021790555082600360008681526020019081526020016000206001019080519060200190610b889291906110a9565b50610b97565b60009050610b98565b5b9392505050565b60006002905090565b6003602052806000526040600020600091509050806000015490806001018054600181600116156101000203166002900480601f016020809104026020016040519081016040528092919081815260200182805460018160011615610100020316600290048015610c5a5780601f10610c2f57610100808354040283529160200191610c5a565b820191906000526020600020905b815481529060010190602001808311610c3d57829003601f168201915b5050505050908060020160009054906101000a900473ffffffffffffffffffffffffffffffffffffffff1690806003018054600181600116156101000203166002900480601f016020809104026020016040519081016040528092919081815260200182805460018160011615610100020316600290048015610d1e5780601f10610cf357610100808354040283529160200191610d1e565b820191906000526020600020905b815481529060010190602001808311610d0157829003601f168201915b505050505090806004018054600181600116156101000203166002900480601f016020809104026020016040519081016040528092919081815260200182805460018160011615610100020316600290048015610dbc5780601f10610d9157610100808354040283529160200191610dbc565b820191906000526020600020905b815481529060010190602001808311610d9f57829003601f168201915b505050505090806005018054600181600116156101000203166002900480601f016020809104026020016040519081016040528092919081815260200182805460018160011615610100020316600290048015610e5a5780601f10610e2f57610100808354040283529160200191610e5a565b820191906000526020600020905b815481529060010190602001808311610e3d57829003601f168201915b505050505090806006018054600181600116156101000203166002900480601f016020809104026020016040519081016040528092919081815260200182805460018160011615610100020316600290048015610ef85780601f10610ecd57610100808354040283529160200191610ef8565b820191906000526020600020905b815481529060010190602001808311610edb57829003601f168201915b5050505050905087565b60025481565b6000809054906101000a900473ffffffffffffffffffffffffffffffffffffffff1681565b60008060009054906101000a900473ffffffffffffffffffffffffffffffffffffffff1673ffffffffffffffffffffffffffffffffffffffff163373ffffffffffffffffffffffffffffffffffffffff16141561109c57600060036000600254815260200190815260200160002090506002548160000181905550600160026000828254019250508190555083816001019080519060200190610fd19291906110a9565b50338160020160006101000a81548173ffffffffffffffffffffffffffffffffffffffff021916908373ffffffffffffffffffffffffffffffffffffffff1602179055508481600301908051906020019061102d9291906110a9565b50828160050190805190602001906110469291906110a9565b508581600601908051906020019061105f9291906110a9565b50600160025490806001815401808255809150509060018203906000526020600020016000909192909190915055506001600254039150506110a1565b600090505b949350505050565b828054600181600116156101000203166002900490600052602060002090601f016020900481019282601f106110ea57805160ff1916838001178555611118565b82800160010185558215611118579182015b828111156111175782518255916020019190600101906110fc565b5b5090506111259190611129565b5090565b61114b91905b8082111561114757600081600090555060010161112f565b5090565b9056fea265627a7a72315820bfe95699c6347443ede1ed050e66d37d5369df9e62ab8cf207915a115c53edd664736f6c63430005100032",
  "source": "// SPDX-License-Identifier: GPL-3.0\n\npragma solidity >=0.5.0 <0.9.0;\n\ncontract supplyChain {\n    address public contractOwner;\n    uint[] public uniqueIDArray;\n    uint public uniqueID ;\n    struct Data{\n        uint ID;\n        string ownerName;\n        address ownerAddress;\n        string productName;\n        string prevOwner;\n        string manu_Name;\n        string manu_Date;\n\n    }\n    \n    mapping (uint => Data) public product;\n    constructor() public {\n        contractOwner=msg.sender;\n        uniqueID=100001;\n        \n    }\n    \n    \n     function addProduct(string memory  date,string memory  pName,string memory oName,string memory mName) public returns(uint){\n         if(msg.sender==contractOwner){\n            Data storage p = product[uniqueID];\n             p.ID=uniqueID;\n             uniqueID+=1;\n             p.ownerName=oName;\n             p.ownerAddress=msg.sender;\n             p.productName=pName;\n             p.manu_Name=mName;\n             p.manu_Date=date;\n             uniqueIDArray.push(uniqueID);\n             return (uniqueID-1);\n         }\n         else{\n             return 0;\n         }\n     }\n\n\n    function changeOwner(uint id,string memory newOwner,address newOwnerAddress) public returns(bool){\n        if(msg.sender==product[id].ownerAddress){\n            // product[id].prevOwner.push(product[id].ownerName);\n            product[id].prevOwner= string(abi.encodePacked(product[id].prevOwner,\" , \",product[id].ownerName));\n            product[id].ownerAddress=newOwnerAddress;\n            product[id].ownerName=newOwner;\n            \n        }\n        else{\n        return false;\n        }\n\n    }\n\n    function verifyProduct(uint id) public view returns(string memory){\n        if(id==product[id].ID){\n            return product[id].prevOwner;\n        }\n        // my modifications\n        else {\n            return \"No results found\";\n        }\n\n    }\n\n    // my testing function\n    function get() public pure returns(uint) {\n        return 2;\n    }\n\n}",
  "sourcePath": "D:\\Documents\\GitHub\\supply-block\\contracts\\supplyChain.sol",
  "compiler": {
    "name": "solc",
    "version": "0.5.16+commit.9c3226ce.Emscripten.clang"
  },
  "schemaVersion": "3.4.4",
  "updatedAt": "2022-02-06T13:06:08.583Z",
  "devdoc": {
    "methods": {}
  },
  "userdoc": {
    "methods": {}
  }
}