{
  "contractName": "TestBlock",
  "abi": [
    {
      "inputs": [],
      "payable": false,
      "stateMutability": "nonpayable",
      "type": "constructor"
    },
    {
      "constant": true,
      "inputs": [],
      "name": "contractOwner",
      "outputs": [
        {
          "internalType": "address",
          "name": "",
          "type": "address"
        }
      ],
      "payable": false,
      "stateMutability": "view",
      "type": "function"
    },
    {
      "constant": true,
      "inputs": [
        {
          "internalType": "address",
          "name": "",
          "type": "address"
        },
        {
          "internalType": "uint256",
          "name": "",
          "type": "uint256"
        }
      ],
      "name": "idList",
      "outputs": [
        {
          "internalType": "uint256",
          "name": "",
          "type": "uint256"
        }
      ],
      "payable": false,
      "stateMutability": "view",
      "type": "function"
    },
    {
      "constant": true,
      "inputs": [
        {
          "internalType": "uint256",
          "name": "",
          "type": "uint256"
        }
      ],
      "name": "product",
      "outputs": [
        {
          "internalType": "uint256",
          "name": "ID",
          "type": "uint256"
        },
        {
          "internalType": "string",
          "name": "ownerName",
          "type": "string"
        },
        {
          "internalType": "address",
          "name": "ownerAddress",
          "type": "address"
        },
        {
          "internalType": "string",
          "name": "productName",
          "type": "string"
        },
        {
          "internalType": "string",
          "name": "prevOwner",
          "type": "string"
        },
        {
          "internalType": "string",
          "name": "manu_Name",
          "type": "string"
        },
        {
          "internalType": "string",
          "name": "manu_Date",
          "type": "string"
        }
      ],
      "payable": false,
      "stateMutability": "view",
      "type": "function"
    },
    {
      "constant": true,
      "inputs": [
        {
          "internalType": "uint256",
          "name": "",
          "type": "uint256"
        }
      ],
      "name": "productNameList",
      "outputs": [
        {
          "internalType": "bytes32",
          "name": "",
          "type": "bytes32"
        }
      ],
      "payable": false,
      "stateMutability": "view",
      "type": "function"
    },
    {
      "constant": true,
      "inputs": [
        {
          "internalType": "uint256",
          "name": "",
          "type": "uint256"
        }
      ],
      "name": "test",
      "outputs": [
        {
          "internalType": "bytes32",
          "name": "",
          "type": "bytes32"
        }
      ],
      "payable": false,
      "stateMutability": "view",
      "type": "function"
    },
    {
      "constant": true,
      "inputs": [],
      "name": "addManufacturerCheck",
      "outputs": [
        {
          "internalType": "bool",
          "name": "",
          "type": "bool"
        }
      ],
      "payable": false,
      "stateMutability": "view",
      "type": "function"
    },
    {
      "constant": false,
      "inputs": [],
      "name": "addManufacturer",
      "outputs": [],
      "payable": false,
      "stateMutability": "nonpayable",
      "type": "function"
    },
    {
      "constant": false,
      "inputs": [
        {
          "internalType": "string",
          "name": "date",
          "type": "string"
        },
        {
          "internalType": "string",
          "name": "pName",
          "type": "string"
        },
        {
          "internalType": "bytes32",
          "name": "PName",
          "type": "bytes32"
        },
        {
          "internalType": "string",
          "name": "oName",
          "type": "string"
        },
        {
          "internalType": "string",
          "name": "mName",
          "type": "string"
        }
      ],
      "name": "addProduct",
      "outputs": [
        {
          "internalType": "uint256",
          "name": "",
          "type": "uint256"
        }
      ],
      "payable": false,
      "stateMutability": "nonpayable",
      "type": "function"
    },
    {
      "constant": false,
      "inputs": [],
      "name": "ownerProducts",
      "outputs": [
        {
          "internalType": "bytes32[]",
          "name": "",
          "type": "bytes32[]"
        }
      ],
      "payable": false,
      "stateMutability": "nonpayable",
      "type": "function"
    },
    {
      "constant": false,
      "inputs": [
        {
          "internalType": "uint256",
          "name": "id",
          "type": "uint256"
        },
        {
          "internalType": "string",
          "name": "newOwner",
          "type": "string"
        },
        {
          "internalType": "address",
          "name": "newOwnerAddress",
          "type": "address"
        }
      ],
      "name": "changeOwner",
      "outputs": [
        {
          "internalType": "bool",
          "name": "",
          "type": "bool"
        }
      ],
      "payable": false,
      "stateMutability": "nonpayable",
      "type": "function"
    },
    {
      "constant": true,
      "inputs": [
        {
          "internalType": "uint256",
          "name": "id",
          "type": "uint256"
        }
      ],
      "name": "verifyProduct",
      "outputs": [
        {
          "internalType": "string",
          "name": "",
          "type": "string"
        },
        {
          "internalType": "uint256",
          "name": "",
          "type": "uint256"
        },
        {
          "internalType": "string",
          "name": "",
          "type": "string"
        },
        {
          "internalType": "string",
          "name": "",
          "type": "string"
        },
        {
          "internalType": "address",
          "name": "",
          "type": "address"
        }
      ],
      "payable": false,
      "stateMutability": "view",
      "type": "function"
    }
  ],
  "bytecode": "0x608060405234801561001057600080fd5b50336000806101000a81548173ffffffffffffffffffffffffffffffffffffffff021916908373ffffffffffffffffffffffffffffffffffffffff160217905550620186a1600181905550611a9c8061006a6000396000f3fe608060405234801561001057600080fd5b50600436106100a95760003560e01c8063570ddbf111610071578063570ddbf114610608578063780bd3f114610705578063a2c66c3614610996578063b5f6dffc146109a0578063ce606ee0146109e2578063e8479cd114610a2c576100a9565b806329e99f07146100ae5780632aa05c57146100f05780634d63895f14610152578063524e8462146103f057806353c81d1b146105a9575b600080fd5b6100da600480360360208110156100c457600080fd5b8101908080359060200190929190505050610a4e565b6040518082815260200191505060405180910390f35b61013c6004803603604081101561010657600080fd5b81019080803573ffffffffffffffffffffffffffffffffffffffff16906020019092919080359060200190929190505050610a6f565b6040518082815260200191505060405180910390f35b6103da600480360360a081101561016857600080fd5b810190808035906020019064010000000081111561018557600080fd5b82018360208201111561019757600080fd5b803590602001918460018302840111640100000000831117156101b957600080fd5b91908080601f016020809104026020016040519081016040528093929190818152602001838380828437600081840152601f19601f8201169050808301925050505050505091929192908035906020019064010000000081111561021c57600080fd5b82018360208201111561022e57600080fd5b8035906020019184600183028401116401000000008311171561025057600080fd5b91908080601f016020809104026020016040519081016040528093929190818152602001838380828437600081840152601f19601f82011690508083019250505050505050919291929080359060200190929190803590602001906401000000008111156102bd57600080fd5b8201836020820111156102cf57600080fd5b803590602001918460018302840111640100000000831117156102f157600080fd5b91908080601f016020809104026020016040519081016040528093929190818152602001838380828437600081840152601f19601f8201169050808301925050505050505091929192908035906020019064010000000081111561035457600080fd5b82018360208201111561036657600080fd5b8035906020019184600183028401116401000000008311171561038857600080fd5b91908080601f016020809104026020016040519081016040528093929190818152602001838380828437600081840152601f19601f820116905080830192505050505050509192919290505050610a9d565b6040518082815260200191505060405180910390f35b61041c6004803603602081101561040657600080fd5b8101908080359060200190929190505050610ca4565b604051808060200186815260200180602001806020018573ffffffffffffffffffffffffffffffffffffffff1673ffffffffffffffffffffffffffffffffffffffff168152602001848103845289818151815260200191508051906020019080838360005b8381101561049c578082015181840152602081019050610481565b50505050905090810190601f1680156104c95780820380516001836020036101000a031916815260200191505b50848103835287818151815260200191508051906020019080838360005b838110156105025780820151818401526020810190506104e7565b50505050905090810190601f16801561052f5780820380516001836020036101000a031916815260200191505b50848103825286818151815260200191508051906020019080838360005b8381101561056857808201518184015260208101905061054d565b50505050905090810190601f1680156105955780820380516001836020036101000a031916815260200191505b509850505050505050505060405180910390f35b6105b1610f24565b6040518080602001828103825283818151815260200191508051906020019060200280838360005b838110156105f45780820151818401526020810190506105d9565b505050509050019250505060405180910390f35b6106eb6004803603606081101561061e57600080fd5b81019080803590602001909291908035906020019064010000000081111561064557600080fd5b82018360208201111561065757600080fd5b8035906020019184600183028401116401000000008311171561067957600080fd5b91908080601f016020809104026020016040519081016040528093929190818152602001838380828437600081840152601f19601f820116905080830192505050505050509192919290803573ffffffffffffffffffffffffffffffffffffffff16906020019092919050505061107f565b604051808215151515815260200191505060405180910390f35b6107316004803603602081101561071b57600080fd5b81019080803590602001909291905050506112e9565b60405180888152602001806020018773ffffffffffffffffffffffffffffffffffffffff1673ffffffffffffffffffffffffffffffffffffffff1681526020018060200180602001806020018060200186810386528c818151815260200191508051906020019080838360005b838110156107b957808201518184015260208101905061079e565b50505050905090810190601f1680156107e65780820380516001836020036101000a031916815260200191505b5086810385528a818151815260200191508051906020019080838360005b8381101561081f578082015181840152602081019050610804565b50505050905090810190601f16801561084c5780820380516001836020036101000a031916815260200191505b50868103845289818151815260200191508051906020019080838360005b8381101561088557808201518184015260208101905061086a565b50505050905090810190601f1680156108b25780820380516001836020036101000a031916815260200191505b50868103835288818151815260200191508051906020019080838360005b838110156108eb5780820151818401526020810190506108d0565b50505050905090810190601f1680156109185780820380516001836020036101000a031916815260200191505b50868103825287818151815260200191508051906020019080838360005b83811015610951578082015181840152602081019050610936565b50505050905090810190601f16801561097e5780820380516001836020036101000a031916815260200191505b509c5050505050505050505050505060405180910390f35b61099e611643565b005b6109cc600480360360208110156109b657600080fd5b81019080803590602001909291905050506116ab565b6040518082815260200191505060405180910390f35b6109ea6116c3565b604051808273ffffffffffffffffffffffffffffffffffffffff1673ffffffffffffffffffffffffffffffffffffffff16815260200191505060405180910390f35b610a346116e8565b604051808215151515815260200191505060405180910390f35b60068181548110610a5b57fe5b906000526020600020016000915090505481565b60026020528160005260406000208181548110610a8857fe5b90600052602060002001600091509150505481565b6000610aa76118a9565b6040518060e0016040528060015481526020018581526020013373ffffffffffffffffffffffffffffffffffffffff16815260200187815260200160405180602001604052806000815250815260200184815260200188815250905080600360006001548152602001908152602001600020600082015181600001556020820151816001019080519060200190610b3f9291906118fc565b5060408201518160020160006101000a81548173ffffffffffffffffffffffffffffffffffffffff021916908373ffffffffffffffffffffffffffffffffffffffff1602179055506060820151816003019080519060200190610ba39291906118fc565b506080820151816004019080519060200190610bc09291906118fc565b5060a0820151816005019080519060200190610bdd9291906118fc565b5060c0820151816006019080519060200190610bfa9291906118fc565b509050508460046000600154815260200190815260200160002081905550600260003373ffffffffffffffffffffffffffffffffffffffff1673ffffffffffffffffffffffffffffffffffffffff168152602001908152602001600020600154908060018154018082558091505090600182039060005260206000200160009091929091909150555060018060008282540192505081905550600180540391505095945050505050565b60606000606080600060036000878152602001908152602001600020600301600360008881526020019081526020016000206000015460036000898152602001908152602001600020600501600360008a8152602001908152602001600020600601600360008b815260200190815260200160002060020160009054906101000a900473ffffffffffffffffffffffffffffffffffffffff16848054600181600116156101000203166002900480601f016020809104026020016040519081016040528092919081815260200182805460018160011615610100020316600290048015610dd25780601f10610da757610100808354040283529160200191610dd2565b820191906000526020600020905b815481529060010190602001808311610db557829003601f168201915b50505050509450828054600181600116156101000203166002900480601f016020809104026020016040519081016040528092919081815260200182805460018160011615610100020316600290048015610e6e5780601f10610e4357610100808354040283529160200191610e6e565b820191906000526020600020905b815481529060010190602001808311610e5157829003601f168201915b50505050509250818054600181600116156101000203166002900480601f016020809104026020016040519081016040528092919081815260200182805460018160011615610100020316600290048015610f0a5780601f10610edf57610100808354040283529160200191610f0a565b820191906000526020600020905b815481529060010190602001808311610eed57829003601f168201915b505050505091509450945094509450945091939590929450565b606060066000610f34919061197c565b6000809050600090505b600260003373ffffffffffffffffffffffffffffffffffffffff1673ffffffffffffffffffffffffffffffffffffffff1681526020019081526020016000208054905081101561102857600660046000600260003373ffffffffffffffffffffffffffffffffffffffff1673ffffffffffffffffffffffffffffffffffffffff1681526020019081526020016000208481548110610fd857fe5b906000526020600020015481526020019081526020016000205490806001815401808255809150509060018203906000526020600020016000909192909190915055508080600101915050610f3e565b600680548060200260200160405190810160405280929190818152602001828054801561107457602002820191906000526020600020905b815481526020019060010190808311611060575b505050505091505090565b6000806003600086815260200190815260200160002090508060020160009054906101000a900473ffffffffffffffffffffffffffffffffffffffff1673ffffffffffffffffffffffffffffffffffffffff163373ffffffffffffffffffffffffffffffffffffffff1614156112dc57806004018160010160405160200180838054600181600116156101000203166002900480156111555780601f10611133576101008083540402835291820191611155565b820191906000526020600020905b815481529060010190602001808311611141575b5050807f202c200000000000000000000000000000000000000000000000000000000000815250600301828054600181600116156101000203166002900480156111d65780601f106111b45761010080835404028352918201916111d6565b820191906000526020600020905b8154815290600101906020018083116111c2575b50509250505060405160208183030381529060405281600401908051906020019061120292919061199d565b50828160020160006101000a81548173ffffffffffffffffffffffffffffffffffffffff021916908373ffffffffffffffffffffffffffffffffffffffff1602179055508381600101908051906020019061125e92919061199d565b50611269338661178c565b600260008473ffffffffffffffffffffffffffffffffffffffff1673ffffffffffffffffffffffffffffffffffffffff16815260200190815260200160002085908060018154018082558091505090600182039060005260206000200160009091929091909150555060019150506112e2565b60009150505b9392505050565b6003602052806000526040600020600091509050806000015490806001018054600181600116156101000203166002900480601f01602080910402602001604051908101604052809291908181526020018280546001816001161561010002031660029004801561139b5780601f106113705761010080835404028352916020019161139b565b820191906000526020600020905b81548152906001019060200180831161137e57829003601f168201915b5050505050908060020160009054906101000a900473ffffffffffffffffffffffffffffffffffffffff1690806003018054600181600116156101000203166002900480601f01602080910402602001604051908101604052809291908181526020018280546001816001161561010002031660029004801561145f5780601f106114345761010080835404028352916020019161145f565b820191906000526020600020905b81548152906001019060200180831161144257829003601f168201915b505050505090806004018054600181600116156101000203166002900480601f0160208091040260200160405190810160405280929190818152602001828054600181600116156101000203166002900480156114fd5780601f106114d2576101008083540402835291602001916114fd565b820191906000526020600020905b8154815290600101906020018083116114e057829003601f168201915b505050505090806005018054600181600116156101000203166002900480601f01602080910402602001604051908101604052809291908181526020018280546001816001161561010002031660029004801561159b5780601f106115705761010080835404028352916020019161159b565b820191906000526020600020905b81548152906001019060200180831161157e57829003601f168201915b505050505090806006018054600181600116156101000203166002900480601f0160208091040260200160405190810160405280929190818152602001828054600181600116156101000203166002900480156116395780601f1061160e57610100808354040283529160200191611639565b820191906000526020600020905b81548152906001019060200180831161161c57829003601f168201915b5050505050905087565b60053390806001815401808255809150509060018203906000526020600020016000909192909190916101000a81548173ffffffffffffffffffffffffffffffffffffffff021916908373ffffffffffffffffffffffffffffffffffffffff16021790555050565b60046020528060005260406000206000915090505481565b6000809054906101000a900473ffffffffffffffffffffffffffffffffffffffff1681565b60008060009050600090505b600580549050811015611783573373ffffffffffffffffffffffffffffffffffffffff166005828154811061172557fe5b9060005260206000200160009054906101000a900473ffffffffffffffffffffffffffffffffffffffff1673ffffffffffffffffffffffffffffffffffffffff161415611776576000915050611789565b80806001019150506116f4565b60019150505b90565b6000809050600090505b600260008473ffffffffffffffffffffffffffffffffffffffff1673ffffffffffffffffffffffffffffffffffffffff168152602001908152602001600020805490508110156118a45781600260008573ffffffffffffffffffffffffffffffffffffffff1673ffffffffffffffffffffffffffffffffffffffff168152602001908152602001600020828154811061182b57fe5b90600052602060002001541415611897576000600260008573ffffffffffffffffffffffffffffffffffffffff1673ffffffffffffffffffffffffffffffffffffffff168152602001908152602001600020828154811061188857fe5b90600052602060002001819055505b8080600101915050611796565b505050565b6040518060e001604052806000815260200160608152602001600073ffffffffffffffffffffffffffffffffffffffff168152602001606081526020016060815260200160608152602001606081525090565b828054600181600116156101000203166002900490600052602060002090601f016020900481019282601f1061193d57805160ff191683800117855561196b565b8280016001018555821561196b579182015b8281111561196a57825182559160200191906001019061194f565b5b5090506119789190611a1d565b5090565b508054600082559060005260206000209081019061199a9190611a42565b50565b828054600181600116156101000203166002900490600052602060002090601f016020900481019282601f106119de57805160ff1916838001178555611a0c565b82800160010185558215611a0c579182015b82811115611a0b5782518255916020019190600101906119f0565b5b509050611a199190611a1d565b5090565b611a3f91905b80821115611a3b576000816000905550600101611a23565b5090565b90565b611a6491905b80821115611a60576000816000905550600101611a48565b5090565b9056fea265627a7a72315820f63514c73f687be57533ff2f1f494d0ab7063ac16e7b68807ddea6459a89005d64736f6c63430005100032",
  "source": "// SPDX-License-Identifier: GPL-3.0\r\n\r\npragma solidity >=0.5.0 <0.9.0;\r\n\r\ncontract TestBlock {\r\n\r\n\r\n\r\n    // function changeOwner(uint id,string memory newOwner,address newOwnerAddress) public returns(bool){\r\n    //     if(msg.sender==product[id].ownerAddress){\r\n    //         // product[id].prevOwner.push(product[id].ownerName);\r\n    //         product[id].prevOwner= string(abi.encodePacked(product[id].prevOwner,\" , \",product[id].ownerName));\r\n    //         product[id].ownerAddress=newOwnerAddress;\r\n    //         product[id].ownerName=newOwner;\r\n    //         return true;\r\n    //     }\r\n    //     else{\r\n    //     return false;\r\n    //     }\r\n\r\n    // }\r\n\r\n\r\n    address public contractOwner;\r\n    \r\n    // stores the current unique Id which will be assigned\r\n    uint private uniqueID ;\r\n    struct Data{\r\n        uint ID;\r\n        string ownerName;\r\n        address ownerAddress;\r\n        string productName;\r\n        string prevOwner;\r\n        string manu_Name;\r\n        string manu_Date;\r\n\r\n    }\r\n    // This is a mapping of accounts and the products owned by the account (stroes unique ID)\r\n    mapping (address => uint[]) public  idList;\r\n    \r\n    mapping (uint => Data) public product;\r\n    mapping (uint => bytes32) public productNameList;\r\n    // array to store data of manufacturer (address)\r\n    address[] private manu;\r\n    \r\n    constructor () public {\r\n        contractOwner=msg.sender;\r\n        uniqueID=100001;\r\n        \r\n    }\r\n\r\n//  To check whether that wallet id is already registered\r\n    function addManufacturerCheck() public view returns(bool) {\r\n        uint i=0;\r\n        for (i=0; i<manu.length; i++) {\r\n            if (manu[i] == msg.sender) {\r\n                return false;\r\n            }\r\n        }\r\n        return true;\r\n    }\r\n\r\n//   add manufacturer\r\n    function addManufacturer() public {\r\n    \r\n        manu.push(msg.sender);\r\n    \r\n    }\r\n    \r\n    function addProduct(string memory  date,string memory  pName, bytes32 PName, string memory oName,string memory mName) public returns(uint){\r\n        // uint i=0;\r\n        // uint flag=0;\r\n        // for(i=0;i<manu.length;i++){\r\n        //     if(manu[i]==msg.sender){\r\n        //         flag=1;\r\n        //     }\r\n        // }\r\n                \r\n        // if(flag==1){\r\n            Data memory p = Data(uniqueID,oName,msg.sender,pName,\"\",mName,date);\r\n            product[uniqueID]=p;\r\n            productNameList[uniqueID]=PName;\r\n            \r\n            //next part inserting into manufacturer details\r\n\r\n            \r\n            idList[msg.sender].push(uniqueID);\r\n            uniqueID+=1;\r\n            return (uniqueID-1);\r\n        // }\r\n        // else{\r\n        //     return 0;\r\n        // }\r\n    }\r\n    //  function to get List of owned Products\r\n    // function ownerProductsTest() public{\r\n    //     test.push(\"Sayan\");\r\n    //     test.push(\"Samanta\");\r\n    // }\r\n    bytes32[] public test;\r\n    function ownerProducts() public returns(bytes32 [] memory) {\r\n        delete test;\r\n        uint i = 0;\r\n        for (i=0; i<idList[msg.sender].length; i++) {\r\n            test.push(productNameList[idList[msg.sender][i]]);\r\n        }\r\n        return test;\r\n    }\r\n    //  remove owned list\r\n    function removeOwnedList(address x,uint Id) private {\r\n        uint i=0;\r\n        for(i=0;i<idList[x].length;i++){\r\n            if(idList[x][i]==Id){\r\n                idList[x][i]=0;\r\n            }\r\n        }\r\n    }\r\n    //  change ownership\r\n\r\n    function changeOwner(uint id,string memory newOwner,address newOwnerAddress) public returns(bool){\r\n    \r\n        Data storage c = product[id];\r\n        if(msg.sender==c.ownerAddress){\r\n            \r\n            c.prevOwner= string(abi.encodePacked(c.prevOwner,\" , \",c.ownerName));\r\n            c.ownerAddress=newOwnerAddress;\r\n            c.ownerName=newOwner;\r\n            removeOwnedList(msg.sender,id); // remove from previous array\r\n            idList[newOwnerAddress].push(id);\r\n            return true;\r\n        }\r\n        else{\r\n        return false;\r\n        }\r\n\r\n    }\r\n\r\n    // My custom function for verify product\r\n    function verifyProduct(uint id) public view returns(\r\n        string memory, uint, string memory, string memory, address\r\n    ){\r\n        return (\r\n            product[id].productName,\r\n            product[id].ID,\r\n            product[id].manu_Name,\r\n            product[id].manu_Date,\r\n            product[id].ownerAddress\r\n        );\r\n\r\n    }\r\n\r\n\r\n\r\n}",
  "sourcePath": "D:\\Documents\\GitHub\\supply-block\\contracts\\TestBlock.sol",
  "compiler": {
    "name": "solc",
    "version": "0.5.16+commit.9c3226ce.Emscripten.clang"
  },
  "schemaVersion": "3.4.4",
  "updatedAt": "2022-02-10T10:07:42.014Z",
  "networkType": "ethereum",
  "devdoc": {
    "methods": {}
  },
  "userdoc": {
    "methods": {}
  }
}